:020000040800F2
:1000000000400120BD2100085521000857210008AB
:10001000592100085B2100085D2100080000000054
:100020000000000000000000000000005F21000848
:10003000612100080000000063210008652100081C
:1000400005220008052200080522000805220008F4
:1000500005220008052200080522000805220008E4
:1000600005220008052200080522000805220008D4
:1000700005220008052200080522000805220008C4
:1000800005220008052200080522000805220008B4
:1000900005220008052200080522000805220008A4
:1000A0000522000805220008052200080522000894
:1000B0000522000805220008052200080522000884
:1000C0000522000805220008052200080522000874
:1000D0000522000805220008052200080522000864
:1000E0000522000805220008052200080522000854
:1000F0000522000800000000052200080522000873
:100100000522000805220008052200080522000833
:100110000522000805220008052200080000000052
:1001200005220008000000000000000000000000A0
:0C01300000000000000000005FF808F173
:1001400010B5054C237833B9044B13B10448AFF311
:1001500000800123237010BD680000200000000013
:10016000C42A000808B5034B1BB103490348AFF389
:10017000008008BD000000006C000020C42A0008B8
:1001800081F0004102E000BF83F0004330B54FEA48
:1001900041044FEA430594EA050F08BF90EA020FB5
:1001A0001FBF54EA000C55EA020C7FEA645C7FEA48
:1001B000655C00F0E2804FEA5454D4EB5555B8BF6B
:1001C0006D420CDD2C4480EA020281EA030382EADC
:1001D000000083EA010180EA020281EA0303362D6E
:1001E00088BF30BD11F0004F4FEA01314FF4801C41
:1001F0004CEA113102D0404261EB410113F0004F53
:100200004FEA03334CEA133302D0524263EB430309
:1002100094EA050F00F0A780A4F10104D5F1200EA7
:100220000DDB02FA0EFC22FA05F2801841F1000102
:1002300003FA0EF2801843FA05F359410EE0A5F1D6
:1002400020050EF1200E012A03FA0EFC28BF4CF007
:10025000020C43FA05F3C01851EBE37101F00045BD
:1002600007D54FF0000EDCF1000C7EEB00006EEBCA
:100270000101B1F5801F1BD3B1F5001F0CD3490854
:100280005FEA30004FEA3C0C04F101044FEA4452AB
:1002900012F5800F80F09A80BCF1004F08BF5FEA32
:1002A000500C50F1000041EB045141EA050130BD12
:1002B0005FEA4C0C404141EB010111F4801FA4F1B5
:1002C0000104E9D191F0000F04BF01460020B1FA0A
:1002D00081F308BF2033A3F10B03B3F120020CDA42
:1002E0000C3208DD02F1140CC2F10C0201FA0CF020
:1002F00021FA02F10CE002F11402D8BFC2F1200C85
:1003000001FA02F120FA0CFCDCBF41EA0C0190403A
:10031000E41AA2BF01EB0451294330BD6FEA040483
:100320001F3C1CDA0C340EDC04F11404C4F120026E
:1003300020FA04F001FA02F340EA030021FA04F380
:1003400045EA030130BDC4F10C04C4F1200220FAD7
:1003500002F001FA04F340EA0300294630BD21FA15
:1003600004F0294630BD94F0000F83F4801306BFDB
:1003700081F480110134013D4EE77FEA645C18BFCF
:100380007FEA655C29D094EA050F08BF90EA020F66
:1003900005D054EA000C04BF1946104630BD91EA5E
:1003A000030F1EBF0021002030BD5FEA545C05D161
:1003B0004000494128BF41F0004130BD14F58004A0
:1003C0003CBF01F5801130BD01F0004545F0FE4114
:1003D00041F470014FF0000030BD7FEA645C1ABF49
:1003E000194610467FEA655C1CBF0B46024650EA80
:1003F000013406BF52EA033591EA030F41F40021AC
:1004000030BD00BF90F0000F04BF0021704730B531
:100410004FF4806404F132044FF000054FF0000106
:1004200050E700BF90F0000F04BF0021704730B5C7
:100430004FF4806404F1320410F0004548BF40429C
:100440004FF000013EE700BF42004FEAE2014FEAF1
:1004500031014FEA02701FBF12F07F4393F07F4FCC
:1004600081F06051704792F0000F14BF93F07F4FFE
:10047000704730B54FF4607401F0004521F0004141
:1004800020E700BF50EA010208BF704730B54FF0C7
:1004900000050AE050EA010208BF704730B511F0CC
:1004A000004502D5404261EB41014FF4806404F104
:1004B00032045FEA915C3FF4DCAE4FF003025FEA86
:1004C000DC0C18BF03325FEADC0C18BF033202EB0E
:1004D000DC02C2F1200300FA03FC20FA02F001FA68
:1004E00003FE40EA0E0021FA02F11444C1E600BF07
:1004F00070B54FF0FF0C4CF4E06C1CEA11541DBFBA
:100500001CEA135594EA0C0F95EA0C0F00F0DEF884
:100510002C4481EA030621EA4C5123EA4C5350EA69
:10052000013518BF52EA033541F4801143F48013BA
:1005300038D0A0FB02CE4FF00005E1FB02E506F04B
:100540000042E0FB03E54FF00006E1FB03569CF0A0
:10055000000F18BF4EF0010EA4F1FF04B6F5007FA6
:1005600064F5407404D25FEA4E0E6D4146EB060618
:1005700042EAC62141EA55514FEAC52040EA5E50A1
:100580004FEACE2EB4F1FD0C88BFBCF5E06F1ED84B
:10059000BEF1004F08BF5FEA500E50F1000041EB82
:1005A000045170BD06F0004646EA010140EA02002F
:1005B00081EA0301B4EB5C04C2BFD4EB0C0541EA51
:1005C000045170BD41F480114FF0000E013C00F366
:1005D000AB8014F1360FDEBF002001F0004170BD8A
:1005E000C4F10004203C35DA0C341BDC04F11404A3
:1005F000C4F1200500FA05F320FA04F001FA05F22F
:1006000040EA020001F0004221F0004110EBD370FB
:1006100021FA04F642EB06015EEA430E08BF20EA27
:10062000D37070BDC4F10C04C4F1200500FA04F3CA
:1006300020FA05F001FA04F240EA020001F000415C
:1006400010EBD37041F100015EEA430E08BF20EACF
:10065000D37070BDC4F1200500FA05F24EEA020E17
:1006600020FA04F301FA05F243EA020321FA04F046
:1006700001F0004121FA04F220EA020000EBD370FD
:100680005EEA430E08BF20EAD37070BD94F0000FFD
:100690000FD101F00046400041EB010111F4801F31
:1006A00008BF013CF7D041EA060195F0000F18BFE2
:1006B000704703F00046520043EB030313F4801F1E
:1006C00008BF013DF7D043EA0603704794EA0C0FD8
:1006D0000CEA135518BF95EA0C0F0CD050EA4106EE
:1006E00018BF52EA4306D1D181EA030101F000416B
:1006F0004FF0000070BD50EA410606BF1046194693
:1007000052EA430619D094EA0C0F02D150EA01369E
:1007100013D195EA0C0F05D152EA03361CBF1046DF
:1007200019460AD181EA030101F0004141F0FE417E
:1007300041F470014FF0000070BD41F0FE4141F402
:10074000780170BD70B54FF0FF0C4CF4E06C1CEA02
:1007500011541DBF1CEA135594EA0C0F95EA0C0FB7
:1007600000F0A7F8A4EB050481EA030E52EA033572
:100770004FEA013100F088804FEA03334FF0805593
:1007800045EA131343EA12634FEA022245EA1115C0
:1007900045EA10654FEA00260EF000419D4208BF71
:1007A000964244F1FD0404F5407402D25B084FEA1E
:1007B0003202B61A65EB03055B084FEA32024FF4CA
:1007C00080104FF4002CB6EB020E75EB030E22BF27
:1007D000B61A754640EA0C005B084FEA3202B6EBE7
:1007E000020E75EB030E22BFB61A754640EA5C0096
:1007F0005B084FEA3202B6EB020E75EB030E22BF26
:10080000B61A754640EA9C005B084FEA3202B6EB26
:10081000020E75EB030E22BFB61A754640EADC00E5
:1008200055EA060E18D04FEA051545EA16754FEA47
:1008300006164FEAC30343EA52734FEAC2025FEA65
:100840001C1CC0D111F4801F0BD141EA00014FF0F4
:1008500000004FF0004CB6E711F4801F04BF0143C5
:100860000020B4F1FD0C88BFBCF5E06F3FF6AFAEE1
:10087000B5EB030C04BFB6EB020C5FEA500C50F171
:10088000000041EB045170BD0EF0004E4EEA1131F4
:1008900014EB5C04C2BFD4EB0C0541EA045170BDFB
:1008A00041F480114FF0000E013C90E645EA060E3F
:1008B0008DE60CEA135594EA0C0F08BF95EA0C0F6D
:1008C0003FF43BAF94EA0C0F0AD150EA01347FF4B5
:1008D00034AF95EA0C0F7FF425AF104619462CE78C
:1008E00095EA0C0F06D152EA03353FF4FDAE1046EF
:1008F000194622E750EA410618BF52EA43067FF440
:10090000C5AE50EA41047FF40DAF52EA43057FF4CF
:10091000EBAE12E7084B10B5044618684FF47A7333
:10092000B0FBF3F000F0B4FA002221464FF0FF30A4
:1009300000F07AFA002010BD0000002008B5032066
:1009400000F060FA0020FFF7E5FF01F06DFB0020EA
:1009500008BD0000024A136801331360704700BFEE
:10096000A4000020014B1868704700BFA4000020BD
:1009700013B50190FFF7F6FF0446FFF7F3FF019B65
:10098000001B9842F9D302B010BD0000F7B5044631
:1009900008B9012092E0C36C73B9036580F8483050
:1009A000544B1A6A42F001021A621B6A03F00103F7
:1009B0000193019B01F088FBE36CDB06E9D4E36C57
:1009C0004D4A23F4885323F0020343F00203E36407
:1009D0005368616823F440330B4353604FF4007055
:1009E00090FAA0F00223B0FA80F0616A93FAA3F3C0
:1009F000B3FA83F36569E26801FA03F32A43256ACF
:100A00002A43E56B05FA00F002431343626B256944
:100A1000102A1CBFA06B0243206818BF1343026852
:100A200012F0400223D1A669E7693343A668B5F501
:100A3000807F46EA070643D0012D08BF4FF480723D
:100A40003243E66A012E0DD100293BD14FF46041BB
:100A500091FAA1F1B1FA81F6216B42F400620139F9
:100A6000B1400A434668254931400A4342608168E3
:100A7000234AB5F5807F02EA010242EA030282605E
:100A800001D0012D27D1056B4FF0F87292FAA2F236
:100A9000B2FA82F1A26A013A8A4025F0F8710A435B
:100AA00002638168174A0A40934218D100202065EA
:100AB000E36C23F0030343F00103E36403B0F0BDF0
:100AC0002A46BDE7E16C41F02001E164216D41F06F
:100AD00001012165C6E7026B22F0F872E0E7E36CE2
:100AE00023F0120343F01003E364236D43F001038A
:100AF00023654EE70038024000270140FF16FCFC4A
:100B000089F1FFC0FEFF80BF036870B59A68044694
:100B100056050D460BD59B68D80508D5E36C01201A
:100B200043F02003E364002384F8483070BDFFF7EE
:100B300019FF064623681A6892070ED5A26912B9F2
:100B40006FF012021A60E26C42F40072E2649A687A
:100B500012F0405F13D0002070BD691CEBD045B986
:100B6000E36C032043F00403E364002384F848307B
:100B700070BDFFF7F7FE801B8542DBD2F0E7626AAB
:100B8000002AE8D11A6B12F0F87F02D09B685B054F
:100B9000E1D4E36C23F48073E364E06C10F48050E0
:100BA000D9D1E36C43F00103E36470BD0368986D31
:100BB00070470000002373B5019390F84830012B73
:100BC00000F0A68001234D6880F84830062D0268A9
:100BD0004FEA85030C6823D82B441F25166C053B70
:100BE0009D4026EA050504FA03F32B431364092C00
:100BF0004FEA44038E6849D8072155692344994038
:100C000025EA010506FA03F32B435361A4F110030F
:100C1000012B65D9002380F84830184602B070BD1A
:100C20000C2D0BD82B441F25D66B233B9D4026EA69
:100C3000050504FA03F32B43D363D8E7122D0BD831
:100C40002B441F25966B413B9D4026EA050504FA7F
:100C500003F32B439363CAE7182D0BD82B441F25AE
:100C6000566B5F3B9D4026EA050504FA03F32B43D0
:100C70005363BCE72B441F25166B7D3B9D4026EA42
:100C8000050504FA03F32B431363B0E7132C0CD8C8
:100C90002344A3F11E0507231169AB4021EA030198
:100CA00006FA05F50D431561B0E71D2C0CD8234459
:100CB000A3F13C010723D5688B4025EA030306FA1C
:100CC00001F11943D160A1E707252344D16D5A3BB7
:100CD0009D4021EA050106FA03F30B43D36595E72E
:100CE0000C4B5A68120295D45A68102C42F4000238
:100CF0005A608FD1084B094A1B68B3FBF2F20A23F2
:100D000053430193019B002B84D0019B013BF8E7E7
:100D1000022083E7002701400000002040420F002E
:100D2000002373B50193036804461A68520602D57E
:100D3000002002B070BD9A6842F001029A60134B25
:100D4000134A1B68B3FBF2F303EB43030193019BCC
:100D5000C3B9FFF707FE064623681D6815F0400576
:100D6000E6D1FFF7FFFD801B0228F5D9E36C84F87C
:100D7000485043F01003E364236D012043F0010366
:100D80002365D6E7019B013BE0E700BF00000020A0
:100D900040420F0090F8483010B5012B04462ED089
:100DA000012380F84830FFF7BBFF48BBE36C23F416
:100DB000E06323F0010343F48073E36423685A681B
:100DC000520541BFE26C22F4405242F48052E26488
:100DD000E26C12F480521CBF226D22F006022265E2
:100DE000002284F848206FF022021A609A6812F0FC
:100DF000405F05D19A6842F080429A6010BD02209F
:100E000010BD0000074A0002D36800F4E06023F43C
:100E1000E0631B041B0C43F0BF6343F40033034344
:100E2000D360704700ED00E0174B30B5DC68C4F3C9
:100E30000224C4F10703251D042B28BF0423062D1B
:100E40004FF0010598BF002405FA03F303F1FF33C7
:100E500088BF033C1940A14005FA04F4013C22403C
:100E6000002842EA01024FEA0212AFBF00F16040DF
:100E7000064B00F00F00D2B2A5BFD2B200F5614020
:100E80001A5480F8002330BD00ED00E014ED00E0BE
:100E90000138B0F1807F0AD2F021064B064A586033
:100EA00082F823100020072298601A607047012002
:100EB000704700BF10E000E000ED00E0044B0428A4
:100EC0001A680CBF42F0040222F004021A60704754
:100ED00010E000E0704708B5FFF7FCFF08BD000018
:100EE00000232DE9F74FD1F80080DFF89491624A92
:100EF00038FA03F402D103B0BDE8F08F4FF0010ED1
:100F00000EFA03FE18EA0E0600F0A8804C6824F0E2
:100F10001007022F16D14FF00F0C4FEAD30A00EB47
:100F20008A0A03F0070BDAF820504FEA8B0B0CFA11
:100F30000BFC25EA0C0C0D6905FA0BF545EA0C05CE
:100F4000CAF8205003254FEA430A05FA0AF5ED4393
:100F5000D0F800B004F0030C0BEA050B0CFA0AFC05
:100F6000013F4CEA0B0C012FC0F800C011D8876874
:100F700007EA050BCF6807FA0AFC4CEA0B07876003
:100F8000476827EA0E0EC4F300179F4047EA0E0792
:100F90004760C7683D408F6807FA0AF73D43C56060
:100FA000E5005BD54FF00F0CD9F8205023F0030774
:100FB00045F00105C9F82050D9F8205007F18047C5
:100FC00005F00105019507F5803703F0030E019D3B
:100FD0004FEA8E0ED7F808A00CFA0EF52AEA050C97
:100FE000264DA8423CD005F58065A8423AD005F5CB
:100FF0008065A84238D005F58065A84236D005F551
:101000008065A84234D005F58065A84232D005F548
:101010008065A84214BF0725062505FA0EF545EAA6
:101020000C05BD60F743156814F4803F0CBF3D40CC
:1010300035431560556814F4003F0CBF3D403543FF
:101040005560956814F4801F0CBF3D403543956092
:10105000D568A40254BF3D403543D560013347E70E
:101060000025DAE70125D8E70225D6E70325D4E7EE
:101070000425D2E70525D0E7000401400000024026
:10108000003802400AB1816170470904FBE70000A3
:101090001C4B82B09A6812F0F00F0CD000221A4953
:1010A0000B6823F0010313430B60086800F0010094
:1010B000504002B070475A6A144912F0805F0FD056
:1010C0000A6802F4C052B2F5C05FE7D1B0F5404FF4
:1010D000E4D10D4A136843F0040313600122DEE7F4
:1010E0005A6A42F080525A625A6A02F08052019261
:1010F000019A0A68596A02F4C05221F0805159627B
:10110000E1E700BF00380240003C024000700040B0
:1011100003682DE9F743D90704466AD423689A0780
:1011200000F1E6802368DE0655D5C14DAB6813F0AB
:101130000C0F40F083814FF4007393FAA3F22968F7
:1011400093FAA3F3B3FA83F3012203F01F0302FA25
:1011500003F30B4202D0A369002B6ED0B44D206A7A
:101160006B6803F46043984240F24A81FFF790FFB6
:10117000002862D16B68226A23F4604313436B60DA
:1011800069684FF07F4393FAA3F3B3FA83F2E369FC
:10119000934021F07F4213436B604FF4604393FA16
:1011A000A3F3B3FA83F0A24BF0219A6891FAA1F16C
:1011B000B1FA81F1236A02F0F002C340581C4FF4E7
:1011C0000043CA409B4983408A5C0020D3409A4A2E
:1011D0001360FFF79FFB23681D0700F191812368CF
:1011E000580700F1D381626A002A40F0578200203C
:1011F00024E08F4B9A6802F00C02082A07D09A6804
:1012000002F00C020C2A1CD19B68DB0319D54FF4A9
:10121000003393FAA3F2864A116893FAA3F3B3FA60
:1012200083F3012203F01F0302FA03F30B423FF49E
:1012300075AF6368002B7FF471AF012003B0BDE888
:10124000F08363687A4D012B20D12B6843F48033FF
:101250002B60FFF787FB4FF4003580460126744F63
:1012600095FAA5F33A6895FAA5F3B3FA83F303F078
:101270001F0306FA03F313427FF450AFFFF772FB2C
:10128000A0EB08006428EBD90320D7E713BB2B6839
:101290004FF4003623F480332B602B68012723F4AE
:1012A00080232B60FFF75EFB804696FAA6F32A6840
:1012B00096FAA6F3B3FA83F303F01F0307FA03F3D6
:1012C00013423FF42BAFFFF74DFBA0EB080064285F
:1012D000EBD9D9E7052B2B6803D143F480232B608E
:1012E000B3E723F480332B602B6823F48023AFE72C
:1012F0004F4B9A6802F00C02042A07D09A6802F059
:101300000C020C2A24D19B68DF0321D4022393FA18
:10131000A3F2474A106893FAA3F3B3FA83F30121C7
:1013200003F01F0301FA03F30342134602D0E268FD
:101330008A4282D158684FF4F85292FAA2F2B2FA75
:1013400082F122698A4020F4F8510A435A60E9E6A2
:10135000E268012582B395FAA5F3B3FA83F303F1AA
:10136000845303F58E139B001D60FFF7FBFA0227E1
:1013700080462F4E97FAA7F3326897FAA7F3B3FA8D
:1013800083F303F01F0305FA03F313420DD07168D2
:101390004FF4F85393FAA3F3B3FA83F2236993401B
:1013A00021F4F85213437360BCE6FFF7DBFAA0EBBD
:1013B00008000228DED967E795FAA5F3B3FA83F3AC
:1013C00003F1845303F58E139B001A60FFF7CAFAEA
:1013D00002268046164F96FAA6F33A6896FAA6F3C6
:1013E000B3FA83F303F01F0305FA03F313423FF448
:1013F00099AEFFF7B7FAA0EB08000228EBD943E754
:101400006B6823F4604303436B6069684FF07F436C
:1014100093FAA3F3B3FA83F2E369934021F07F4296
:1014200013436B60FFF734FE00283FF4B6AE04E7C9
:1014300000380240E32A000800000020A2694FF4AF
:101440008073002A37D093FAA3F3B3FA83F301260B
:1014500003F1845303F58E139B001E60FFF782FA9D
:101460004FF40077804697FAA7F32A6897FAA7F314
:10147000B3FA83F303F01F0306FA03F3134213D006
:101480006B68226A23F4604313436B6069684FF012
:101490007F4393FAA3F3B3FA83F2E369934021F015
:1014A0007F4213436B6096E6FFF75CFAA0EB0800FF
:1014B0000228D8D9E8E693FAA3F3B3FA83F303F149
:1014C000845303F58E139B001A60FFF74BFA4FF419
:1014D00000768046012796FAA6F32A6896FAA6F3C4
:1014E000B3FA83F303F01F0307FA03F313423FF445
:1014F00072AEFFF737FAA0EB08000228EBD9C3E67B
:1015000062690125A94902B395FAA5F3B3FA83F3F9
:101510000B449B001D60FFF725FA02268046A44F6E
:1015200096FAA6F37A6B96FAA6F3B3FA83F303F06E
:101530001F0305FA03F313427FF451AEFFF712FACB
:10154000A0EB08000228EBD99EE695FAA5F3B3FAC2
:1015500083F30B449B001A60FFF704FA02268046CF
:10156000934F96FAA6F37A6B96FAA6F3B3FA83F33F
:1015700003F01F0305FA03F313423FF430AEFFF705
:10158000F1F9A0EB08000228EBD97DE6884B5A6AF6
:10159000D10034D401265A6A42F080525A625B6A02
:1015A00003F080530193019B824D2B68DA0528D507
:1015B000A3687F4D012B34D16B6B43F480736B6355
:1015C000FFF7D0F94FF4007581460127DFF8E0817D
:1015D00095FAA5F3D8F8342095FAA5F3B3FA83F376
:1015E00003F01F0307FA03F313424ED0002E3FF41B
:1015F000FAAD6F4A536A23F080535362F3E5002635
:10160000D2E72B6843F480732B60FFF7ABF90746F2
:101610002B68DB05CCD4FFF7A5F9C01B6428F7D9EC
:1016200032E623BB6B6B4FF4007723F480736B635C
:101630006B6B4FF0010823F480636B63FFF792F943
:10164000814697FAA7F36A6B97FAA7F3B3FA83F385
:1016500003F01F0308FA03F31342C7D0FFF782F920
:1016600041F28833A0EB09009842EAD90CE6052B39
:101670006B6B03D143F480636B639DE723F480734A
:101680006B636B6B23F4806399E7FFF76BF941F2AF
:101690008833A0EB090098429AD9F5E5444DAB6830
:1016A00003F00C030C2B3FF4C8AD022A4FF08073FB
:1016B00056D193FAA3F3B3FA83F3002203F18453D0
:1016C00003F58E139B001A60FFF74CF92E468046F7
:1016D0004FF00077012597FAA7F3326897FAA7F33E
:1016E000B3FA83F303F01F0305FA03F3134230D177
:1016F000B268A36AE16A22F47D020B431343226BB2
:101700001343B3604FF0807393FAA3F3B3FA83F3F8
:1017100003F1845303F58E139B001D60FFF722F93C
:101720004FF0007407460125214E94FAA4F3326865
:1017300094FAA4F3B3FA83F303F01F0305FA03F357
:1017400013427FF454ADFFF70DF9C01B0228ECD90A
:101750009AE5FFF707F9A0EB08000228BBD993E54B
:1017600093FAA3F3B3FA83F3002203F1845303F54E
:101770008E139B001A60FFF7F5F84FF000740746D0
:10178000012694FAA4F32A6894FAA4F3B3FA83F333
:1017900003F01F0306FA03F313423FF428ADFFF7EB
:1017A000E1F8C01B0228ECD96EE500BFA0C1911082
:1017B00000380240007000401E4910B58B6803F0ED
:1017C0000C02082A05D00C2A05D0042A22D11A4876
:1017D00010BD1A4810BD4FF4701292FAA2F2B2FA7C
:1017E00082F203F4701020FA02F21548845C4FF480
:1017F000400090FAA0F0B0FA80F203F440008B6849
:10180000D040DB034CBF0D4B0B4B01306343B3FBAC
:10181000F0F010BD48684FF4604393FAA3F3B3FAB5
:1018200083F300F46040D840431C4FF400409840DC
:1018300010BD00BF003802400024F40000127A00FE
:10184000FB2A00086A4B2DE9F0411A68064602F0AF
:1018500001028A420D4630D33268940740D4D00743
:1018600046D4634B1A6802F001029542C0F0AE8084
:101870003268510700F1B380130707D55D4A31691B
:10188000936823F4605343EAC1039360FFF794FF26
:10189000584BF0229B6892FAA2F2B2FA82F203F05D
:1018A000F003D340544AD35CD840544B1860002016
:1018B000FFF730F80020BDE8F081012902BF1A6867
:1018C00042F004021A601A6822F001020A431A6008
:1018D0001B6803F001039942BED00120BDE8F081EE
:1018E0004449B0688B6823F0F00303438B60B6E78C
:1018F00072684049022A0FD14FF4003393FAA3F0E3
:10190000086893FAA3F3B3FA83F3012103F01F03EA
:1019100001FA03F3034213E0032A02D14FF00073EC
:10192000ECE7012A29D1022393FAA3F0096893FA7C
:10193000A3F3B3FA83F303F01F0302FA03F30B429A
:10194000CBD02C4C41F28838A36823F003031A4310
:10195000A260FFF707F873680746022B10D1A3684F
:1019600003F00C03082B3FF47CAFFEF7FBFFC01B1A
:101970004045F4D90320BDE8F0814FF40073BDE782
:10198000032B0BD1A36803F00C030C2B3FF469AFBE
:10199000FEF7E8FFC01B4045F4D9EBE7012B10D15F
:1019A000A36803F00C03042B3FF45BAFFEF7DAFFF0
:1019B000C01B4045F4D9DDE7FEF7D4FFC01B40450E
:1019C000D8D8A36813F00C0FF6D14AE71A6822F0B2
:1019D00001021A601B68DA073FF57FAF48E7054947
:1019E000F0688B6823F4E06303438B6044E700BF37
:1019F000003C024000380240E32A000800000020BA
:101A0000014B1868704700BF00000020084B4FF4DE
:101A1000E0629B6892FAA2F2B2FA82F203F4E06307
:101A2000D340044AD35C044A1068D840704700BFD2
:101A300000380240F32A000800000020084B4FF451
:101A400060529B6892FAA2F2B2FA82F203F46053F7
:101A5000D340044AD35C044A1068D840704700BFA2
:101A600000380240F32A0008000000202DE9F0476A
:101A700081460568C2682B69C16923F4405313434A
:101A80002B6183680069EA680343D9F8140022F4E3
:101A90001642034322F00C020B431343EB606B69C5
:101AA000D9F8182023F440731343B1F5004F6B614C
:101AB0007E4B7FD19D424FF0190447D1FFF7BEFF07
:101AC00004FB00F3D9F804704FF064087F00B3FB07
:101AD000F7F3B3FBF8F31F01FFF7B0FF6043D9F84A
:101AE00004305B00B0FBF3F6FFF7A8FF6043D9F8C2
:101AF00004305B00B0FBF3F3B3FBF8F308FB1363B4
:101B0000DB003233B3FBF8F35B0003F4F876FFF746
:101B100095FF6043D9F804205200B0FBF2FAFFF7BA
:101B20008DFF6043D9F804305B00B0FBF3F3B3FBE7
:101B3000F8F308FB13A3DB003233B3FBF8F303F035
:101B400007033B443344AB60BDE8F087FFF75EFF1B
:101B500004FB00F3D9F804704FF064087F00B3FB76
:101B6000F7F3B3FBF8F31F01FFF750FF6043D9F819
:101B700004305B00B0FBF3F6FFF748FF6043D9F891
:101B800004305B00B0FBF3F3B3FBF8F308FB136323
:101B9000DB003233B3FBF8F35B0003F4F876FFF7B6
:101BA00035FF6043D9F804205200B0FBF2FAFFF78A
:101BB0002DFFB6E79D424FF0190443D1FFF73EFFDA
:101BC00004FB00F3D9F804604FF06408B600B3FBDF
:101BD000F6F3B3FBF8F31E01FFF730FF6043D9F8CB
:101BE00004309B00B0FBF3F7FFF728FF6043D9F800
:101BF00004309B00B0FBF3F3B3FBF8F308FB137363
:101C00001B013233B3FBF8F303F0F007FFF716FFC5
:101C10006043D9F804209200B0FBF2FAFFF70EFF00
:101C20006043D9F804309B00B0FBF3F3B3FBF8F347
:101C300008FB13A31B013233B3FBF8F303F00F03CC
:101C40003B437FE7FFF7E2FE04FB00F3D9F80460B3
:101C50004FF06408B600B3FBF6F3B3FBF8F31E01D4
:101C6000FFF7D4FE6043D9F804309B00B0FBF3F7D4
:101C7000FFF7CCFE6043D9F804309B00B0FBF3F3D0
:101C8000B3FBF8F308FB13731B013233B3FBF8F318
:101C900003F0F007FFF7BAFE6043D9F80420920082
:101CA000B0FBF2FAFFF7B2FEBAE700BF003801401E
:101CB000F8B504460E461546FEF754FE0746226860
:101CC000136836EA030301D10020F8BD6B1CF7D07E
:101CD000C5B923680320DA6822F08002DA60DA6886
:101CE00022F02002DA60DA6822F48072DA605A693F
:101CF00022F001025A61012384F83930002384F86C
:101D00003830F8BDFEF72EFEC01B8542D7D2E0E783
:101D100010B5044630B390F8393003F0FF021BB918
:101D200080F8382000F0F0F90223226884F8393076
:101D3000D368204623F40053D360FFF797FE23684F
:101D400000201A6922F490421A615A6922F02A028C
:101D50005A61DA6842F40052DA600123E06384F8E1
:101D6000393010BD012010BD70B50D4690F8391006
:101D70000446C9B201291E4601D022294DD1002DA9
:101D800049D0002A47D094F83830012B45D00123A0
:101D900084F838300023E36394F83930A284222B8E
:101DA0000CBF32231223E28484F83930E28C8AB9E2
:101DB000324640212046FFF77BFFC0B994F8393006
:101DC000322B0CBF2223012384F83930002384F8FE
:101DD000383070BDA368013AB3F5805FE2844FF0FC
:101DE0008001324620460DD1FFF762FF08B1032083
:101DF00070BD2B882268C3F308035360236943B97D
:101E00000235D3E7FFF754FF0028F0D123682A7882
:101E10005A600135CAE7012070BD022070BD000084
:101E20001E4A10B5136892B023F4C05343F4006304
:101E30001360022305930E9300230F934FF40023A6
:101E40000124102210934FF4000305A8089409926E
:101E50001193FFF75DF900B1FEE70F220323029013
:101E600003900490214668468DE80C00FFF7EAFCD9
:101E7000044600B1FEE7FFF7C3FD4FF47A73B0FBF1
:101E8000F3F0FFF705F80420FFF718F82246214683
:101E90004FF0FF30FEF7C8FF12B010BD00700040D9
:101EA0002DE9F0438BB0FEF749FDFFF7B9FF524B28
:101EB0002021DA69514842F00402DA61DA6900242B
:101EC00002F004020192019ADA69012542F020022F
:101ED000DA61DA6902F020020292029ADA6942F0CB
:101EE0000102DA61DA6902F001020392039ADA6907
:101EF00042F00202DA61DB69002203F0020304937C
:101F0000049BFFF7BFF84FF4005305933C4B05A922
:101F10003C4806930794FEF7E3FF2023374805A9C2
:101F20000593069507940894FEF7DAFF4FF4E13322
:101F30003548364A846080E80C000C23C460046194
:101F400043618461C461FFF7E3FE00B1FEE7304CFA
:101F5000304B606023601023A060E060206160610E
:101F6000A061E06120626062E062A063E0632046FD
:101F7000A5626363FEF70AFD00B1FEE705900790D6
:101F800005A920460695FEF715FE00B1FEE70026DE
:101F90000FF25C09D9E900891F4F2046FEF7FAFECF
:101FA00064212046FEF7B0FD2046FEF7FFFDFEF758
:101FB00029FA42464B46FEF79BFA32463B46FEF76D
:101FC00097FA02460B4615491548C1E90023154901
:101FD00000F03EF96423142211490B48FFF7C4FEB8
:101FE0004FF47A70FEF7C4FCD7E700BFAFF3008070
:101FF000000000000070A7400038024000000240CE
:102000000000111000080240A80000200044004019
:10201000E8000020002401400000303F4001002083
:1020200084000020DC2A00081FB5264B07205A6ACE
:1020300042F000425A625A6A02F000420192019A4A
:102040001A6A42F001021A621A6A02F0010202924E
:10205000029A5A6A42F080525A625B6A03F08053D5
:102060000393039BFEF7CEFE00226FF00B00114698
:10207000FEF7DAFE00226FF00A001146FEF7D4FEEA
:1020800000226FF009001146FEF7CEFE00226FF02D
:1020900004001146FEF7C8FE00226FF0030011464F
:1020A000FEF7C2FE00226FF001001146FEF7BCFEF3
:1020B00000224FF0FF301146FEF7B6FE05B05DF886
:1020C00004FB00BF003802407FB502680C4B9A4207
:1020D00013D103F58A331A6A01A942F400721A6215
:1020E0001B6A084803F400730093009B03230193C9
:1020F000029300230393FEF7F3FE07B05DF804FBA1
:1021000000240140000002407FB502680F4B9A4254
:1021100018D103F5FA335A6A01A942F400325A621F
:102120005B6A0B4803F400330093009B0C2301937C
:1021300002230293012303930323049307230593AC
:10214000FEF7CEFE07B05DF804FB00BF0044004080
:10215000000002407047FEE7FEE7FEE7FEE770473B
:102160007047704708B5FEF7F5FBBDE80840FEF77D
:10217000B2BE00000E4B1A6842F480721A60996871
:102180000C4A0A409A601A6822F0885222F0011222
:102190001A601A6822F480221A609A6822F47D027A
:1021A0009A600022DA604FF00062034B9A60704739
:1021B000003802400CC0FF8800ED00E0002103E081
:1021C0000B4B5B58435004310A480B4B42189A4260
:1021D000F6D30A4A02E0002342F8043B084B9A4235
:1021E000F9D3FFF7C7FF00F00FF8FFF759FE70476C
:1021F000402B00080000002068000020680000203C
:102200004C010020FEE7000070B500250C4E0D4C7F
:10221000A41BA410A54209D100F054FC00250A4ECD
:102220000A4CA41BA410A54205D170BD56F8253058
:1022300098470135EEE756F8253098470135F2E723
:10224000382B0008382B0008382B00083C2B0008DE
:102250000EB44FF4027100B59CB0ADF814106FF0DD
:102260000041049107914FF6FF711DAB029006905B
:10227000084853F8042BADF81610006802A9019322
:1022800000F066F80022029B1A701CB05DF804EBA7
:1022900003B07047040000202DE9F0478E688246A5
:1022A0009E420C469146984635D88A8912F4906F22
:1022B00031D00223256809696F1A656905EB450568
:1022C00095FBF3F508F101033B449D4238BF1D46E1
:1022D000530531D5294600F047FB064650B90C237B
:1022E000CAF80030A3894FF0FF3043F04003A381C8
:1022F000BDE8F0873A46216900F0C4FAA38923F4C7
:10230000906343F08003A38126613E4426604646E5
:102310006561ED1BA560464528BF464649463246E5
:10232000206800F0BAFAA36800209B1BA360236812
:102330001E442660BDE8F0872A4600F073FB06467F
:102340000028E1D12169504600F0C2FAC7E7000039
:102350002DE9F04F9DB003938B8980461C060D46F6
:1023600016460FD50B696BB9402100F0FDFA2860C5
:10237000286128B90C23C8F800304FF0FF30C4E0C2
:1023800040236B610023099320238DF829303023EB
:102390004FF0010B8DF82A3037463C4614F8013BCC
:1023A000002B3CD1B7EB060A0BD0534632462946E8
:1023B0004046FFF771FF013000F0A280099B5344B3
:1023C00009933B78002B00F09B8000234FF0FF32F5
:1023D00004930793059206938DF853301A930522C0
:1023E0002178504800F040FA671C049BD8B9D90600
:1023F00044BF20228DF853201A0744BF2B228DF8AA
:10240000532022782A2A16D000210A20079A27462C
:102410003B780134303B092B50D9C9B111E0252B51
:10242000C0D02746B9E73F4A3C46801A0BFA00F075
:1024300018430490D3E7039A111D12680391002AF0
:1024400001DB079204E0524243F002030792049337
:102450003B782E2B0DD17B78791C2A2B32D1039B14
:1024600002371A1D1B680392002BB8BF4FF0FF33D1
:1024700005932D4C03223978204600F0F5F938B148
:102480004023001B03FA00F0049B0137034304932D
:102490003978062225487E1C8DF8281000F0E4F9D2
:1024A000002835D0224BFBB9039B073323F00703E9
:1024B00008330393099B4B4409936DE700FB0232F9
:1024C0000121A4E700230A24184605930F463A7811
:1024D0000131303A092A03D9002BCAD00590C8E748
:1024E00004FB00200123F1E703AB00932A46114BC4
:1024F00004A94046AFF30080B0F1FF3F8146D9D137
:10250000AB895B063FF539AF09981DB0BDE8F08F88
:1025100003AB00932A46074B04A9404600F084F819
:10252000EAE700BF042B00080A2B00080E2B000866
:1025300000000000992200082DE9F04791461F464F
:102540008A680B6906469342B8BF1346C9F8003043
:1025500091F843200C46DDF8208012B10133C9F810
:1025600000302368990642BFD9F800300233C9F819
:102570000030256815F0060507D104F1190AE36853
:10258000D9F800209B1A9D422ADB94F84330226838
:10259000003318BF012392062FD404F143023946B9
:1025A0003046C047013022D02368E56803F00603B7
:1025B000042B18BF0025D9F800204FF0000908BFF0
:1025C000AD1AA368226908BF25EAE5759342C4BF26
:1025D0009B1AED181A344D451BD10020BDE8F08739
:1025E0000123524639463046C047013003D14FF0EF
:1025F000FF30BDE8F0870135C1E73020E11881F8F0
:1026000043005A1C94F845102244023382F84310C8
:10261000C3E70123224639463046C0470130E6D0A1
:1026200009F10109D7E700002DE9F04317460A7EBA
:1026300085B06E2A984606460C460C9B01F1430E67
:1026400000F0BC801AD8632A2ED00AD8002A00F0E5
:10265000C880582A00F08A8004F1420584F842209C
:102660002AE0642A01D0692AF6D121681A6811F09B
:10267000800F23D0111D1960136827E0732A00F022
:10268000B48008D86F2A2AD0702AE5D10A6842F0AF
:1026900020020A6003E0752A21D0782ADCD1782252
:1026A0006F4984F8452064E01A6801F14205111D64
:1026B0001960136884F842300123A3E011F0400F41
:1026C00002F104011960D7D0B2F90030002B03DA0F
:1026D0002D225B4284F8432062490A2217E02068D9
:1026E000196810F0800F03D0081D18600B6806E011
:1026F00010F0400F01F104001860F7D00B886F2A2A
:1027000014BF0A2208225749002084F84300656854
:10271000002DA560C0F29C80206820F0040020609D
:10272000002B3FD1002D40F095807546082A0BD133
:102730002368DA0708D5236962689A42DEBF30232E
:1027400005F8013C05F1FF35AEEB05032361CDF83B
:1027500000803B4603AA21463046FFF7EDFE0130DC
:1027600055D14FF0FF3005B0BDE8F08381F845202A
:102770003C492268186812F0800F00F104051D60C2
:1027800001D0036802E05506FBD50388D00744BF9B
:1027900042F0200222601BB9226822F0200222604F
:1027A0001022B1E77546B3FBF2F002FB1033CB5CAD
:1027B00005F8013D03460028F5D1B7E708681A6817
:1027C00010F0800F496904D0101D1860136819605B
:1027D00007E010F0400F02F1040018601368F6D013
:1027E0001980002375462361B1E71A68111D19602D
:1027F000156800216268284600F036F808B1401BD1
:10280000606063682361002384F843309FE7236995
:102810002A4639463046C0470130A2D023689B077C
:1028200007D5002504F11909E368039A9B1A9D4214
:1028300005DBE068039B9842B8BF184693E7012385
:102840004A4639463046C04701308AD00135EBE769
:10285000002BA7D10B7804F1420584F8423065E7DC
:10286000262B0008152B000810B5C9B2024490426F
:10287000034601D1002010BD1C7801308C42F6D1F6
:10288000184610BD10B5431E0A44914200D110BD38
:1028900011F8014B03F8014FF7E7884210B501EB3F
:1028A000020303D8421E99420CD110BD9842F9D2BE
:1028B0008118D21AD34200D110BD13F8014D01F88E
:1028C000014DF7E711F8014B02F8014FEBE700006B
:1028D00038B50546002943D051F8043C0C1F002BA5
:1028E000B8BFE41800F0D4F81E4A1368104633B994
:1028F000636014602846BDE8384000F0CAB8A342BF
:102900000BD921686218934201BF1A685B6852189C
:10291000226063600460EDE713465A680AB1A24280
:10292000FAD919685818A0420BD1206801445818E8
:1029300082421960DED110685268014419605A6001
:10294000D8E702D90C232B60D4E7206821188A42EB
:1029500001BF116852680918216062605C60C9E7B4
:1029600038BD00BF9800002070B5CD1C25F00305D0
:1029700008350C2D38BF0C25002D064601DBA94279
:1029800003D90C233360002070BD00F081F8234A86
:102990001468214691B9224C23681BB9304600F0D7
:1029A00067F820602946304600F062F8431C26D1C3
:1029B0000C233046336000F06CF8E4E70B685B1BD7
:1029C0001AD40B2B0FD90B60CC18CD50304600F029
:1029D00060F804F10B00231D20F00700C31A1BD080
:1029E0005A42E25070BD8C420BBF63684B68136063
:1029F000636018BF0C46E9E70C464968CAE7C41C87
:102A000024F00304A04205D0211A304600F030F82B
:102A10000130CDD02560D9E770BD00BF98000020FF
:102A20009C000020F8B5074614460E4621B9114611
:102A3000BDE8F840FFF798BF22B9FFF749FF2546E8
:102A40002846F8BD00F026F884420FD921463846C2
:102A5000FFF78AFF05460028F2D031462246FFF7ED
:102A600011FF31463846FFF733FFE9E73546E7E720
:102A700038B50023054C05460846236000F014F8DD
:102A8000431C02D1236803B12B6038BD48010020EC
:102A90007047704751F8040C0028A0F10400BCBF37
:102AA0000B58C01870470000044B0246196809B95A
:102AB00003491960186802441A607047A00000209A
:102AC0004C010020F8B500BFF8BC08BC9E4670471A
:0C2AD000F8B500BFF8BC08BC9E4670477B
:102ADC00252E32660D0A00000000000000000001E7
:102AEC0002030406070809000000000102030403A6
:102AFC000406080C10182030232D302B2000686C95
:102B0C004C00656667454647003031323334353604
:102B1C00373839414243444546003031323334353D
:0C2B2C003637383961626364656600006A
:042B3800650100082B
:042B3C00410100084B
:102B400068FF1F00080000200000000000000000D7
:102B50000000000000000000000000000000000075
:102B60000000000000000000000000000000000065
:102B70000000000000000000000000000000000055
:102B80000000000000000000000000000000000045
:102B90000000000000000000000000000000000035
:082BA00000000000000000002D
:04000005080021BD11
:00000001FF
