:020000040800F2
:10000000004001202D180008751800087518000818
:100010007518000875180008751800080000000021
:10002000000000000000000000000000751800083B
:10003000751800080000000075180008CD170008AA
:10004000751800087518000875180008751800085C
:10005000751800087518000875180008751800084C
:10006000751800087518000875180008751800083C
:10007000751800087518000875180008751800082C
:10008000751800087518000875180008751800081C
:10009000751800087518000875180008751800080C
:1000A00075180008751800087518000875180008FC
:1000B00075180008751800087518000875180008EC
:1000C00075180008751800087518000875180008DC
:1000D00075180008751800087518000875180008CC
:1000E000DB17000875180008751800087518000857
:1000F0007518000800000000751800087518000841
:10010000751800087518000875180008751800089B
:100110007518000875180008751800080000000020
:10012000751800080000000000000000000000003A
:0C01300000000000000000005FF808F173
:10013C0010B5054C237833B9044B13B10448AFF315
:10014C0000800123237010BD080000200000000077
:10015C00C018000808B5034B1BB103490348AFF3A3
:10016C00008008BD000000000C000020C018000832
:10017C00084B10B5044618684FF47A73B0FBF3F0D3
:10018C0000F076F8002221464FF0FF3000F030F8F6
:10019C00002010BD0400002008B5032000F016F864
:1001AC000020FFF7E5FF01F061FA002008BD000018
:1001BC00024A136801331360704700BF2800002007
:1001CC00014B1868704700BF28000020074A000246
:1001DC00D36800F4E06023F4E0631B041B0C43F0D1
:1001EC00BF6343F400330343D360704700ED00E07A
:1001FC00174B30B5DC68C4F30224C4F10703251D8A
:10020C00042B28BF0423062D4FF0010598BF0024B2
:10021C0005FA03F303F1FF3388BF033C1940A140F7
:10022C0005FA04F4013C2240002842EA01024FEA9C
:10023C000212AFBF00F16040064B00F00F00D2B2CB
:10024C00A5BFD2B200F561401A5480F8002330BD2E
:10025C0000ED00E014ED00E00123420900F01F0066
:10026C0003FA00F0014B43F82200704700E100E074
:10027C000138B0F1807F0AD2F021064B064A586053
:10028C0082F823100020072298601A607047012022
:10029C00704700BF10E000E000ED00E0044B0428C4
:1002AC001A680CBF42F0040222F004021A60704774
:1002BC0010E000E0704708B5FFF7FCFF08BD000038
:1002CC0000232DE9F74FD1F80080DFF89491624AB2
:1002DC0038FA03F402D103B0BDE8F08F4FF0010EF1
:1002EC000EFA03FE18EA0E0600F0A8804C6824F003
:1002FC001007022F16D14FF00F0C4FEAD30A00EB68
:10030C008A0A03F0070BDAF820504FEA8B0B0CFA31
:10031C000BFC25EA0C0C0D6905FA0BF545EA0C05EE
:10032C00CAF8205003254FEA430A05FA0AF5ED43B3
:10033C00D0F800B004F0030C0BEA050B0CFA0AFC25
:10034C00013F4CEA0B0C012FC0F800C011D8876894
:10035C0007EA050BCF6807FA0AFC4CEA0B07876023
:10036C00476827EA0E0EC4F300179F4047EA0E07B2
:10037C004760C7683D408F6807FA0AF73D43C56080
:10038C00E5005BD54FF00F0CD9F8205023F0030794
:10039C0045F00105C9F82050D9F8205007F18047E5
:1003AC0005F00105019507F5803703F0030E019D5B
:1003BC004FEA8E0ED7F808A00CFA0EF52AEA050CB7
:1003CC00264DA8423CD005F58065A8423AD005F5EB
:1003DC008065A84238D005F58065A84236D005F571
:1003EC008065A84234D005F58065A84232D005F569
:1003FC008065A84214BF0725062505FA0EF545EAC7
:10040C000C05BD60F743156814F4803F0CBF3D40EC
:10041C0035431560556814F4003F0CBF3D4035431F
:10042C005560956814F4801F0CBF3D4035439560B2
:10043C00D568A40254BF3D403543D560013347E72E
:10044C000025DAE70125D8E70225D6E70325D4E70E
:10045C000425D2E70525D0E7000401400000024046
:10046C00003802400369194214BF01200020704774
:10047C000AB1816170470904FBE7704708B5044B6A
:10048C005969014202D05861FFF7F7FF08BD00BF60
:10049C00000401401C4B82B09A6812F0F00F0CD093
:1004AC0000221A490B6823F0010313430B60086800
:1004BC0000F00100504002B070475A6A144912F023
:1004CC00805F0FD00A6802F4C052B2F5C05FE7D16A
:1004DC00B0F5404FE4D10D4A136843F004031360A8
:1004EC000122DEE75A6A42F080525A625A6A02F0DE
:1004FC0080520192019A0A68596A02F4C05221F0A2
:10050C0080515962E1E700BF00380240003C0240D4
:10051C000070004003682DE9F743D90704466AD4FC
:10052C0023689A0700F1E6802368DE0655D5C14D95
:10053C00AB6813F00C0F40F083814FF4007393FA07
:10054C00A3F2296893FAA3F3B3FA83F3012203F01D
:10055C001F0302FA03F30B4202D0A369002B6ED0E7
:10056C00B44D206A6B6803F46043984240F24A81B0
:10057C00FFF790FF002862D16B68226A23F4604376
:10058C0013436B6069684FF07F4393FAA3F3B3FA9C
:10059C0083F2E369934021F07F4213436B604FF485
:1005AC00604393FAA3F3B3FA83F0A24BF0219A6859
:1005BC0091FAA1F1B1FA81F1236A02F0F002C34081
:1005CC00581C4FF40043CA409B4983408A5C00206E
:1005DC00D3409A4A1360FFF7CBFD23681D0700F147
:1005EC0091812368580700F1D381626A002A40F098
:1005FC005782002024E08F4B9A6802F00C02082AE4
:10060C0007D09A6802F00C020C2A1CD19B68DB0301
:10061C0019D54FF4003393FAA3F2864A116893FA72
:10062C00A3F3B3FA83F3012203F01F0302FA03F3DB
:10063C000B423FF475AF6368002B7FF471AF012060
:10064C0003B0BDE8F08363687A4D012B20D12B6891
:10065C0043F480332B60FFF7B3FD4FF40035804635
:10066C000126744F95FAA5F33A6895FAA5F3B3FAF7
:10067C0083F303F01F0306FA03F313427FF450AF26
:10068C00FFF79EFDA0EB08006428EBD90320D7E709
:10069C0013BB2B684FF4003623F480332B602B688C
:1006AC00012723F480232B60FFF78AFD804696FAFE
:1006BC00A6F32A6896FAA6F3B3FA83F303F01F03A2
:1006CC0007FA03F313423FF42BAFFFF779FDA0EBCE
:1006DC0008006428EBD9D9E7052B2B6803D143F428
:1006EC0080232B60B3E723F480332B602B6823F437
:1006FC008023AFE74F4B9A6802F00C02042A07D014
:10070C009A6802F00C020C2A24D19B68DF0321D4D6
:10071C00022393FAA3F2474A106893FAA3F3B3FAAD
:10072C0083F3012103F01F0301FA03F30342134681
:10073C0002D0E2688A4282D158684FF4F85292FA99
:10074C00A2F2B2FA82F122698A4020F4F8510A43EB
:10075C005A60E9E6E268012582B395FAA5F3B3FA8B
:10076C0083F303F1845303F58E139B001D60FFF795
:10077C0027FD022780462F4E97FAA7F3326897FA87
:10078C00A7F3B3FA83F303F01F0305FA03F3134241
:10079C000DD071684FF4F85393FAA3F3B3FA83F2C4
:1007AC002369934021F4F85213437360BCE6FFF7BE
:1007BC0007FDA0EB08000228DED967E795FAA5F340
:1007CC00B3FA83F303F1845303F58E139B001A6081
:1007DC00FFF7F6FC02268046164F96FAA6F33A6807
:1007EC0096FAA6F3B3FA83F303F01F0305FA03F3A7
:1007FC0013423FF499AEFFF7E3FCA0EB080002288C
:10080C00EBD943E76B6823F4604303436B6069687F
:10081C004FF07F4393FAA3F3B3FA83F2E369934067
:10082C0021F07F4213436B60FFF734FE00283FF446
:10083C00B6AE04E700380240D818000804000020C7
:10084C00A2694FF48073002A37D093FAA3F3B3FA5A
:10085C0083F3012603F1845303F58E139B001E6072
:10086C00FFF7AEFC4FF40077804697FAA7F32A689F
:10087C0097FAA7F3B3FA83F303F01F0306FA03F313
:10088C00134213D06B68226A23F4604313436B60EA
:10089C0069684FF07F4393FAA3F3B3FA83F2E369E9
:1008AC00934021F07F4213436B6096E6FFF788FC80
:1008BC00A0EB08000228D8D9E8E693FAA3F3B3FA20
:1008CC0083F303F1845303F58E139B001A60FFF737
:1008DC0077FC4FF400768046012796FAA6F32A6837
:1008EC0096FAA6F3B3FA83F303F01F0307FA03F3A4
:1008FC0013423FF472AEFFF763FCA0EB0800022832
:10090C00EBD9C3E662690125A94902B395FAA5F3AF
:10091C00B3FA83F30B449B001D60FFF751FC0226D6
:10092C008046A44F96FAA6F37A6B96FAA6F3B3FA1E
:10093C0083F303F01F0305FA03F313427FF451AE64
:10094C00FFF73EFCA0EB08000228EBD99EE695FAD7
:10095C00A5F3B3FA83F30B449B001A60FFF730FC4A
:10096C0002268046934F96FAA6F37A6B96FAA6F374
:10097C00B3FA83F303F01F0305FA03F313423FF4B6
:10098C0030AEFFF71DFCA0EB08000228EBD97DE68A
:10099C00884B5A6AD10034D401265A6A42F08052EC
:1009AC005A625B6A03F080530193019B824D2B6862
:1009BC00DA0528D5A3687F4D012B34D16B6B43F43A
:1009CC0080736B63FFF7FCFB4FF4007581460127C6
:1009DC00DFF8E08195FAA5F3D8F8342095FAA5F361
:1009EC00B3FA83F303F01F0307FA03F313424ED059
:1009FC00002E3FF4FAAD6F4A536A23F080535362D2
:100A0C00F3E50026D2E72B6843F480732B60FFF7E5
:100A1C00D7FB07462B68DB05CCD4FFF7D1FBC01BFB
:100A2C006428F7D932E623BB6B6B4FF4007723F4C1
:100A3C0080736B636B6B4FF0010823F480636B6303
:100A4C00FFF7BEFB814697FAA7F36A6B97FAA7F3F9
:100A5C00B3FA83F303F01F0308FA03F31342C7D06E
:100A6C00FFF7AEFB41F28833A0EB09009842EAD9BC
:100A7C000CE6052B6B6B03D143F480636B639DE732
:100A8C0023F480736B636B6B23F4806399E7FFF73C
:100A9C0097FB41F28833A0EB090098429AD9F5E50F
:100AAC00444DAB6803F00C030C2B3FF4C8AD022A89
:100ABC004FF0807356D193FAA3F3B3FA83F3002269
:100ACC0003F1845303F58E139B001A60FFF778FB38
:100ADC002E4680464FF00077012597FAA7F332682F
:100AEC0097FAA7F3B3FA83F303F01F0305FA03F3A2
:100AFC00134230D1B268A36AE16A22F47D020B433F
:100B0C001343226B1343B3604FF0807393FAA3F338
:100B1C00B3FA83F303F1845303F58E139B001D602A
:100B2C00FFF74EFB4FF0007407460125214E94FA57
:100B3C00A4F3326894FAA4F3B3FA83F303F01F031B
:100B4C0005FA03F313427FF454ADFFF739FBC01BD6
:100B5C000228ECD99AE5FFF733FBA0EB080002283A
:100B6C00BBD993E593FAA3F3B3FA83F3002203F111
:100B7C00845303F58E139B001A60FFF721FB4FF093
:100B8C0000740746012694FAA4F32A6894FAA4F395
:100B9C00B3FA83F303F01F0306FA03F313423FF493
:100BAC0028ADFFF70DFBC01B0228ECD96EE500BF8A
:100BBC00A0C1911000380240007000401E4910B5D1
:100BCC008B6803F00C02082A05D00C2A05D0042AE5
:100BDC0022D11A4810BD1A4810BD4FF4701292FA67
:100BEC00A2F2B2FA82F203F4701020FA02F2154863
:100BFC00845C4FF4400090FAA0F0B0FA80F203F459
:100C0C0040008B68D040DB034CBF0D4B0B4B0130CD
:100C1C006343B3FBF0F010BD48684FF4604393FAA4
:100C2C00A3F3B3FA83F300F46040D840431C4FF4B1
:100C3C000040984010BD00BF003802400024F40072
:100C4C0000127A00F01800086A4B2DE9F0411A687E
:100C5C00064602F001028A420D4630D332689407F0
:100C6C0040D4D00746D4634B1A6802F00102954277
:100C7C00C0F0AE803268510700F1B380130707D57E
:100C8C005D4A3169936823F4605343EAC10393606E
:100C9C00FFF794FF584BF0229B6892FAA2F2B2FA3B
:100CAC0082F203F0F003D340544AD35CD840544B47
:100CBC0018600020FFF75CFA0020BDE8F0810129E4
:100CCC0002BF1A6842F004021A601A6822F001028C
:100CDC000A431A601B6803F001039942BED001203D
:100CEC00BDE8F0814449B0688B6823F0F0030343FE
:100CFC008B60B6E772684049022A0FD14FF400337B
:100D0C0093FAA3F0086893FAA3F3B3FA83F30121DF
:100D1C0003F01F0301FA03F3034213E0032A02D189
:100D2C004FF00073ECE7012A29D1022393FAA3F0C8
:100D3C00096893FAA3F3B3FA83F303F01F0302FADF
:100D4C0003F30B42CBD02C4C41F28838A36823F030
:100D5C0003031A43A260FFF733FA73680746022BAA
:100D6C0010D1A36803F00C03082B3FF47CAFFFF702
:100D7C0027FAC01B4045F4D90320BDE8F0814FF49D
:100D8C000073BDE7032B0BD1A36803F00C030C2BF2
:100D9C003FF469AFFFF714FAC01B4045F4D9EBE7F9
:100DAC00012B10D1A36803F00C03042B3FF45BAFB1
:100DBC00FFF706FAC01B4045F4D9DDE7FFF700FA50
:100DCC00C01B4045D8D8A36813F00C0FF6D14AE7E6
:100DDC001A6822F001021A601B68DA073FF57FAF30
:100DEC0048E70549F0688B6823F4E06303438B60A4
:100DFC0044E700BF003C024000380240D81800080D
:100E0C0004000020014B1868704700BF040000204C
:100E1C00084B4FF4E0629B6892FAA2F2B2FA82F2AB
:100E2C0003F4E063D340044AD35C044A1068D8400E
:100E3C00704700BF00380240E8180008040000208A
:100E4C00084B4FF460529B6892FAA2F2B2FA82F20B
:100E5C0003F46053D340044AD35C044A1068D8406E
:100E6C00704700BF00380240E8180008040000205A
:100E7C00B0F1804F03680ED01C4A90420BD002F5A3
:100E8C008062904207D002F58062904203D002F556
:100E9C007C42904216D14A6823F07003B0F1804F27
:100EAC0043EA020315D0114A904212D002F5806237
:100EBC0090420ED002F5806290420AD002F57C423C
:100ECC00904206D00A4A904203D002F580629042CA
:100EDC0003D1CA6823F44073134303608B68C36265
:100EEC000B68836201234361704700BF000400401C
:100EFC00000C014010B50446A0B190F8353003F059
:100F0C00FF021BB980F8342000F000FC022320689B
:100F1C0084F83530211DFFF7ABFF0123002084F846
:100F2C00353010BD012010BD0223026880F8353029
:100F3C00136843F001031360012380F8353000205F
:100F4C00704790F8343070B5012B4FF002031CD071
:100F5C00012280F83530036880F834209A6822F436
:100F6C007F4222F077029A600A68402A79D019D819
:100F7C00102A00F093800AD8002A00F089800123FF
:100F8C0080F83530002380F83430184670BD202AA4
:100F9C0000F08A80302AF2D19A6822F0700242F076
:100FAC00370236E0702A36D01BD8502A42D0602A3D
:100FBC00E5D11C6A4D6824F01004CE681C62996956
:100FCC001A6A21F4704122F0A00242EA051241EAA9
:100FDC00063199611A629A6822F0700242F0670237
:100FEC0017E0B2F5805F11D0B2F5005FC7D18A6807
:100FFC004D689C68C9682A4324F47F4442EA012264
:10100C0022439A609A6842F4804202E09A6822F085
:10101C0007029A60B3E78A684D689C68C9682A43DE
:10102C0024F47F4442EA012222439A609A6842F0F7
:10103C007702EEE74C68CE68196A1D6A21F00A0146
:10104C0025F001051D629A69214322F0F00242EA63
:10105C0006129A6119629A6822F0700242F05702E5
:10106C00D7E74C68CE68196A1D6A21F00A0125F091
:10107C0001051D629A69214322F0F00242EA061230
:10108C009A6119629A6822F0700242F04702C0E736
:10109C009A6822F0700242F00702BAE79A6822F0CE
:1010AC00700242F01702B4E79A6822F0700242F024
:1010BC002702AEE790F8343010B5012B4FF0020345
:1010CC0018D080F8353003680C685A68496822F0EB
:1010DC0070025A605A6822435A609A6822F0800261
:1010EC009A609A680A439A60012380F8353000238D
:1010FC0080F83430184610BD2DE9F047814605685C
:10110C00C2682B69C16923F4405313432B61836874
:10111C000069EA680343D9F8140022F41642034329
:10112C0022F00C020B431343EB606B69D9F81820C7
:10113C0023F440731343B1F5004F6B617E4B7FD1A9
:10114C009D424FF0190447D1FFF77AFE04FB00F3E0
:10115C00D9F804704FF064087F00B3FBF7F3B3FBCE
:10116C00F8F31F01FFF76CFE6043D9F804305B0005
:10117C00B0FBF3F6FFF764FE6043D9F804305B0074
:10118C00B0FBF3F3B3FBF8F308FB1363DB00323370
:10119C00B3FBF8F35B0003F4F876FFF751FE604302
:1011AC00D9F804205200B0FBF2FAFFF749FE604375
:1011BC00D9F804305B00B0FBF3F3B3FBF8F308FB96
:1011CC0013A3DB003233B3FBF8F303F007033B4408
:1011DC003344AB60BDE8F087FFF71AFE04FB00F365
:1011EC00D9F804704FF064087F00B3FBF7F3B3FB3E
:1011FC00F8F31F01FFF70CFE6043D9F804305B00D5
:10120C00B0FBF3F6FFF704FE6043D9F804305B0043
:10121C00B0FBF3F3B3FBF8F308FB1363DB003233DF
:10122C00B3FBF8F35B0003F4F876FFF7F1FD6043D2
:10123C00D9F804205200B0FBF2FAFFF7E9FDB6E74B
:10124C009D424FF0190443D1FFF7FAFD04FB00F364
:10125C00D9F804604FF06408B600B3FBF6F3B3FBA7
:10126C00F8F31E01FFF7ECFD6043D9F804309B0046
:10127C00B0FBF3F7FFF7E4FD6043D9F804309B00B3
:10128C00B0FBF3F3B3FBF8F308FB13731B0132331E
:10129C00B3FBF8F303F0F007FFF7D2FD6043D9F886
:1012AC0004209200B0FBF2FAFFF7CAFD6043D9F8B4
:1012BC0004309B00B0FBF3F3B3FBF8F308FB13A370
:1012CC001B013233B3FBF8F303F00F033B437FE70F
:1012DC00FFF79EFD04FB00F3D9F804604FF064089F
:1012EC00B600B3FBF6F3B3FBF8F31E01FFF790FD6A
:1012FC006043D9F804309B00B0FBF3F7FFF788FD8F
:10130C006043D9F804309B00B0FBF3F3B3FBF8F364
:10131C0008FB13731B013233B3FBF8F303F0F00734
:10132C00FFF776FD6043D9F804209200B0FBF2FA87
:10133C00FFF76EFDBAE700BF0038014010B5044658
:10134C0030B390F8393003F0FF021BB980F8382025
:10135C0000F010FA0223226884F83930D368204652
:10136C0023F40053D360FFF7C7FE236800201A69EB
:10137C0022F490421A615A6922F02A025A61DA6800
:10138C0042F40052DA600123E06384F8393010BD76
:10139C00012010BD1E4A10B5136892B023F4C0533F
:1013AC0043F400631360022305930E9300230F9301
:1013BC004FF400230124102210934FF4000305A8CE
:1013CC00089409921193FFF7A5F800B1FEE70F22DC
:1013DC000323029003900490214668468DE80C008C
:1013EC00FFF732FC044600B1FEE7FFF70BFD4FF4AC
:1013FC007A73B0FBF3F0FEF73BFF0420FEF74EFFD1
:10140C00224621464FF0FF30FEF7F2FE12B010BD1F
:10141C000070004080B58CB0FEF7BEFEFFF7BAFF3F
:10142C00854B2021DA69854842F00402DA61DA69D9
:10143C00002402F004020192019ADA69202542F09C
:10144C002002DA61DA694FF4E13602F020020292EE
:10145C00029ADA6942F00102DA61DA6902F00102F9
:10146C000392039ADA6942F00202DA61DB69002224
:10147C0003F002030493049BFEF7FAFF4FF40053AE
:10148C0007936F4B07A96F4808930994FEF718FF51
:10149C00012307A969480893079509940A94FEF754
:1014AC000FFF224621462820FEF7A2FE2820FEF739
:1014BC00D3FE6548654B846080E848000C23C4600B
:1014CC00046143618461C461FFF738FF00B1FEE73A
:1014DC004FF6FF765E4C5F4BA0602061204684E89F
:1014EC002800E660FFF706FD00B1FEE74FF48055DB
:1014FC0007A920460795FFF724FD00B1FEE70590EC
:10150C00069005A92046FFF7D5FD00B1FEE74FF484
:10151C004863514C5149A06084E80A004FF0FF33F6
:10152C0020612046E360FFF7E5FC00B1FEE707A968
:10153C0020460795FFF705FD00B1FEE705900690E4
:10154C0005A92046FFF7B6FD00B1FEE74FF080423B
:10155C004FF4FA43424CA0602061204684E80C0012
:10156C00E660FFF7C7FC274600B1FEE707A9204657
:10157C000795FFF7E6FC00B1FEE70590069005A97C
:10158C002046FFF797FD00B1FEE73548FFF7CCFC8E
:10159C002C4D344C4FF400512846FEF763FF0028C5
:1015AC0037D12378FF2B34D1DFF8BC80207046462E
:1015BC00D8F80030022BEDD03B685B6A1E2B0CD99F
:1015CC00012220211D48FEF753FF002220211B4839
:1015DC00FEF74EFF00223B685A624FF4005128463A
:1015EC00FEF740FF38B123782BB933681BB9336849
:1015FC0001333360DCE74FF400512846FEF732FF2D
:10160C000028D5D12378002BD2D13368012BCFD130
:10161C00EDE74FF400512846FEF724FF0028B9D01F
:10162C002278002AB6D1104B19680229B2D11A605F
:10163C00FF232370AEE700BF0038024000000240D9
:10164C000000211000080240D4000020004400409B
:10165C0064000020000400402C000020000C00401E
:10166C009C00002000000020240000201FB5264B09
:10167C0007205A6A42F000425A625A6A02F000424B
:10168C000192019A1A6A42F001021A621A6A02F075
:10169C0001020292029A5A6A42F080525A625B6AC2
:1016AC0003F080530393039BFEF790FD00226FF031
:1016BC000B001146FEF79CFD00226FF00A0011464C
:1016CC00FEF796FD00226FF009001146FEF790FD23
:1016DC0000226FF004001146FEF78AFD00226FF025
:1016EC0003001146FEF784FD00226FF00100114645
:1016FC00FEF77EFD00224FF0FF301146FEF778FD1D
:10170C0005B05DF804FB00BF00380240036884B0EC
:10171C00B3F1804F0CD103F50E335A6A42F001023B
:10172C005A625B6A03F001030193019B04B070479A
:10173C000D4A93420AD10D4B5A6A42F002025A6288
:10174C005B6A03F002030293029BEFE7084A9342A1
:10175C00ECD1064B5A6A42F008025A625B6A03F0FB
:10176C0008030393039BE1E70004004000380240A8
:10177C00000C00407FB502680F4B9A4218D103F55C
:10178C00FA335A6A01A942F400325A625B6A0B4876
:10179C0003F400330093009B0C2301930223029368
:1017AC00012303930323049307230593FEF788FD7A
:1017BC0007B05DF804FB00BF00440040000002408D
:1017CC0008B5FEF7F5FCBDE80840FEF774BD4FF414
:1017DC000050FEF753BE00000E4B1A6842F48072A4
:1017EC001A6099680C4A0A409A601A6822F088526A
:1017FC0022F001121A601A6822F480221A609A6888
:10180C0022F47D029A600022DA604FF00062034BF2
:10181C009A607047003802400CC0FF8800ED00E071
:10182C00002103E00B4B5B58435004310A480B4B2F
:10183C0042189A42F6D30A4A02E0002342F8043BCB
:10184C00084B9A42F9D3FFF7C7FF00F00FF8FFF7E8
:10185C00E1FD70470419000800000020080000207A
:10186C000800002014010020FEE7000070B50025E0
:10187C000C4E0D4CA41BA410A54209D100F01AF873
:10188C0000250A4E0A4CA41BA410A54205D170BD1C
:10189C0056F8253098470135EEE756F8253098472D
:1018AC000135F2E7FC180008FC180008FC180008C9
:1018BC0000190008F8B500BFF8BC08BC9E4670477C
:0C18CC00F8B500BFF8BC08BC9E46704791
:1018D80000000000000000000102030406070809D8
:1018E8000000000001020304030406080C1018207D
:0418F80030000000BC
:0418FC00610100087E
:041900003D0100089D
:08190400FF00000068FF1F0056
:040000050800182DAA
:00000001FF
